{
  "_format": "hh-sol-artifact-1",
  "contractName": "BlinkNFT",
  "sourceName": "contracts/BlinkNFT.sol",
  "abi": [
    {
      "inputs": [],
      "stateMutability": "payable",
      "type": "constructor"
    },
    {
      "anonymous": false,
      "inputs": [
        {
          "indexed": true,
          "internalType": "address",
          "name": "owner",
          "type": "address"
        },
        {
          "indexed": true,
          "internalType": "address",
          "name": "approved",
          "type": "address"
        },
        {
          "indexed": true,
          "internalType": "uint256",
          "name": "tokenId",
          "type": "uint256"
        }
      ],
      "name": "Approval",
      "type": "event"
    },
    {
      "anonymous": false,
      "inputs": [
        {
          "indexed": true,
          "internalType": "address",
          "name": "owner",
          "type": "address"
        },
        {
          "indexed": true,
          "internalType": "address",
          "name": "operator",
          "type": "address"
        },
        {
          "indexed": false,
          "internalType": "bool",
          "name": "approved",
          "type": "bool"
        }
      ],
      "name": "ApprovalForAll",
      "type": "event"
    },
    {
      "anonymous": false,
      "inputs": [
        {
          "indexed": true,
          "internalType": "address",
          "name": "previousOwner",
          "type": "address"
        },
        {
          "indexed": true,
          "internalType": "address",
          "name": "newOwner",
          "type": "address"
        }
      ],
      "name": "OwnershipTransferred",
      "type": "event"
    },
    {
      "anonymous": false,
      "inputs": [
        {
          "indexed": true,
          "internalType": "address",
          "name": "from",
          "type": "address"
        },
        {
          "indexed": true,
          "internalType": "address",
          "name": "to",
          "type": "address"
        },
        {
          "indexed": true,
          "internalType": "uint256",
          "name": "tokenId",
          "type": "uint256"
        }
      ],
      "name": "Transfer",
      "type": "event"
    },
    {
      "inputs": [
        {
          "internalType": "string",
          "name": "_basetokenURI",
          "type": "string"
        }
      ],
      "name": "SetaseTokenUri",
      "outputs": [],
      "stateMutability": "nonpayable",
      "type": "function"
    },
    {
      "inputs": [
        {
          "internalType": "address",
          "name": "to",
          "type": "address"
        },
        {
          "internalType": "uint256",
          "name": "tokenId",
          "type": "uint256"
        }
      ],
      "name": "approve",
      "outputs": [],
      "stateMutability": "nonpayable",
      "type": "function"
    },
    {
      "inputs": [
        {
          "internalType": "address",
          "name": "owner",
          "type": "address"
        }
      ],
      "name": "balanceOf",
      "outputs": [
        {
          "internalType": "uint256",
          "name": "",
          "type": "uint256"
        }
      ],
      "stateMutability": "view",
      "type": "function"
    },
    {
      "inputs": [
        {
          "internalType": "uint256",
          "name": "tokenId",
          "type": "uint256"
        }
      ],
      "name": "getApproved",
      "outputs": [
        {
          "internalType": "address",
          "name": "",
          "type": "address"
        }
      ],
      "stateMutability": "view",
      "type": "function"
    },
    {
      "inputs": [
        {
          "internalType": "address",
          "name": "owner",
          "type": "address"
        },
        {
          "internalType": "address",
          "name": "operator",
          "type": "address"
        }
      ],
      "name": "isApprovedForAll",
      "outputs": [
        {
          "internalType": "bool",
          "name": "",
          "type": "bool"
        }
      ],
      "stateMutability": "view",
      "type": "function"
    },
    {
      "inputs": [],
      "name": "isPublicMintEnabled",
      "outputs": [
        {
          "internalType": "bool",
          "name": "",
          "type": "bool"
        }
      ],
      "stateMutability": "view",
      "type": "function"
    },
    {
      "inputs": [],
      "name": "maxPerWallet",
      "outputs": [
        {
          "internalType": "uint8",
          "name": "",
          "type": "uint8"
        }
      ],
      "stateMutability": "view",
      "type": "function"
    },
    {
      "inputs": [],
      "name": "maxSupply",
      "outputs": [
        {
          "internalType": "uint256",
          "name": "",
          "type": "uint256"
        }
      ],
      "stateMutability": "view",
      "type": "function"
    },
    {
      "inputs": [
        {
          "internalType": "uint256",
          "name": "_quantity",
          "type": "uint256"
        }
      ],
      "name": "mint",
      "outputs": [],
      "stateMutability": "payable",
      "type": "function"
    },
    {
      "inputs": [],
      "name": "mintPrice",
      "outputs": [
        {
          "internalType": "uint256",
          "name": "",
          "type": "uint256"
        }
      ],
      "stateMutability": "view",
      "type": "function"
    },
    {
      "inputs": [],
      "name": "name",
      "outputs": [
        {
          "internalType": "string",
          "name": "",
          "type": "string"
        }
      ],
      "stateMutability": "view",
      "type": "function"
    },
    {
      "inputs": [],
      "name": "owner",
      "outputs": [
        {
          "internalType": "address",
          "name": "",
          "type": "address"
        }
      ],
      "stateMutability": "view",
      "type": "function"
    },
    {
      "inputs": [
        {
          "internalType": "uint256",
          "name": "tokenId",
          "type": "uint256"
        }
      ],
      "name": "ownerOf",
      "outputs": [
        {
          "internalType": "address",
          "name": "",
          "type": "address"
        }
      ],
      "stateMutability": "view",
      "type": "function"
    },
    {
      "inputs": [],
      "name": "renounceOwnership",
      "outputs": [],
      "stateMutability": "nonpayable",
      "type": "function"
    },
    {
      "inputs": [
        {
          "internalType": "address",
          "name": "from",
          "type": "address"
        },
        {
          "internalType": "address",
          "name": "to",
          "type": "address"
        },
        {
          "internalType": "uint256",
          "name": "tokenId",
          "type": "uint256"
        }
      ],
      "name": "safeTransferFrom",
      "outputs": [],
      "stateMutability": "nonpayable",
      "type": "function"
    },
    {
      "inputs": [
        {
          "internalType": "address",
          "name": "from",
          "type": "address"
        },
        {
          "internalType": "address",
          "name": "to",
          "type": "address"
        },
        {
          "internalType": "uint256",
          "name": "tokenId",
          "type": "uint256"
        },
        {
          "internalType": "bytes",
          "name": "_data",
          "type": "bytes"
        }
      ],
      "name": "safeTransferFrom",
      "outputs": [],
      "stateMutability": "nonpayable",
      "type": "function"
    },
    {
      "inputs": [
        {
          "internalType": "address",
          "name": "operator",
          "type": "address"
        },
        {
          "internalType": "bool",
          "name": "approved",
          "type": "bool"
        }
      ],
      "name": "setApprovalForAll",
      "outputs": [],
      "stateMutability": "nonpayable",
      "type": "function"
    },
    {
      "inputs": [
        {
          "internalType": "bool",
          "name": "_isPublicMintEnabled",
          "type": "bool"
        }
      ],
      "name": "setIsPublicMintEnabled",
      "outputs": [],
      "stateMutability": "nonpayable",
      "type": "function"
    },
    {
      "inputs": [
        {
          "internalType": "bytes4",
          "name": "interfaceId",
          "type": "bytes4"
        }
      ],
      "name": "supportsInterface",
      "outputs": [
        {
          "internalType": "bool",
          "name": "",
          "type": "bool"
        }
      ],
      "stateMutability": "view",
      "type": "function"
    },
    {
      "inputs": [],
      "name": "symbol",
      "outputs": [
        {
          "internalType": "string",
          "name": "",
          "type": "string"
        }
      ],
      "stateMutability": "view",
      "type": "function"
    },
    {
      "inputs": [
        {
          "internalType": "uint256",
          "name": "_tokenId",
          "type": "uint256"
        }
      ],
      "name": "tokenURI",
      "outputs": [
        {
          "internalType": "string",
          "name": "",
          "type": "string"
        }
      ],
      "stateMutability": "view",
      "type": "function"
    },
    {
      "inputs": [],
      "name": "totalSupply",
      "outputs": [
        {
          "internalType": "uint256",
          "name": "",
          "type": "uint256"
        }
      ],
      "stateMutability": "view",
      "type": "function"
    },
    {
      "inputs": [
        {
          "internalType": "address",
          "name": "from",
          "type": "address"
        },
        {
          "internalType": "address",
          "name": "to",
          "type": "address"
        },
        {
          "internalType": "uint256",
          "name": "tokenId",
          "type": "uint256"
        }
      ],
      "name": "transferFrom",
      "outputs": [],
      "stateMutability": "nonpayable",
      "type": "function"
    },
    {
      "inputs": [
        {
          "internalType": "address",
          "name": "newOwner",
          "type": "address"
        }
      ],
      "name": "transferOwnership",
      "outputs": [],
      "stateMutability": "nonpayable",
      "type": "function"
    },
    {
      "inputs": [
        {
          "internalType": "address",
          "name": "",
          "type": "address"
        }
      ],
      "name": "walletMints",
      "outputs": [
        {
          "internalType": "uint256",
          "name": "",
          "type": "uint256"
        }
      ],
      "stateMutability": "view",
      "type": "function"
    },
    {
      "inputs": [],
      "name": "withdraw",
      "outputs": [],
      "stateMutability": "nonpayable",
      "type": "function"
    },
    {
      "inputs": [],
      "name": "withdrawWallet",
      "outputs": [
        {
          "internalType": "address payable",
          "name": "",
          "type": "address"
        }
      ],
      "stateMutability": "view",
      "type": "function"
    }
  ],
  "bytecode": "0x60806040526040518060400160405280600881526020017f426c696e6b4e46540000000000000000000000000000000000000000000000008152506040518060400160405280600281526020017f424e000000000000000000000000000000000000000000000000000000000000815250816000908051906020019062000088929190620001d2565b508060019080519060200190620000a1929190620001d2565b505050620000c4620000b86200010460201b60201c565b6200010c60201b60201c565b66038d7ea4c680006007819055506000600881905550600a6009819055506003600a60006101000a81548160ff021916908360ff160217905550620002e7565b600033905090565b6000600660009054906101000a900473ffffffffffffffffffffffffffffffffffffffff16905081600660006101000a81548173ffffffffffffffffffffffffffffffffffffffff021916908373ffffffffffffffffffffffffffffffffffffffff1602179055508173ffffffffffffffffffffffffffffffffffffffff168173ffffffffffffffffffffffffffffffffffffffff167f8be0079c531659141344cd1fd0a4f28419497f9722a3daafe3b4186f6b6457e060405160405180910390a35050565b828054620001e09062000282565b90600052602060002090601f01602090048101928262000204576000855562000250565b82601f106200021f57805160ff191683800117855562000250565b8280016001018555821562000250579182015b828111156200024f57825182559160200191906001019062000232565b5b5090506200025f919062000263565b5090565b5b808211156200027e57600081600090555060010162000264565b5090565b600060028204905060018216806200029b57607f821691505b60208210811415620002b257620002b1620002b8565b5b50919050565b7f4e487b7100000000000000000000000000000000000000000000000000000000600052602260045260246000fd5b61383080620002f76000396000f3fe60806040526004361061019c5760003560e01c806370a08231116100ec578063b7437ee71161008a578063d5abeb0111610064578063d5abeb0114610593578063e985e9c5146105be578063f0293fd3146105fb578063f2fde38b146106385761019c565b8063b7437ee714610504578063b88d4fde1461052d578063c87b56dd146105565761019c565b80638da5cb5b116100c65780638da5cb5b1461046957806395d89b4114610494578063a0712d68146104bf578063a22cb465146104db5761019c565b806370a08231146103ea578063715018a61461042757806385d178f41461043e5761019c565b80632373ac221161015957806342842e0e1161013357806342842e0e1461032e578063453c2310146103575780636352211e146103825780636817c76c146103bf5761019c565b80632373ac22146102c557806323b872dd146102ee5780633ccfd60b146103175761019c565b80630116bc2d146101a157806301ffc9a7146101cc57806306fdde0314610209578063081812fc14610234578063095ea7b31461027157806318160ddd1461029a575b600080fd5b3480156101ad57600080fd5b506101b6610661565b6040516101c39190612ac6565b60405180910390f35b3480156101d857600080fd5b506101f360048036038101906101ee919061249a565b610674565b6040516102009190612ac6565b60405180910390f35b34801561021557600080fd5b5061021e610756565b60405161022b9190612ae1565b60405180910390f35b34801561024057600080fd5b5061025b60048036038101906102569190612541565b6107e8565b6040516102689190612a44565b60405180910390f35b34801561027d57600080fd5b506102986004803603810190610293919061242d565b61086d565b005b3480156102a657600080fd5b506102af610985565b6040516102bc9190612da3565b60405180910390f35b3480156102d157600080fd5b506102ec60048036038101906102e7919061246d565b61098b565b005b3480156102fa57600080fd5b5061031560048036038101906103109190612317565b610a24565b005b34801561032357600080fd5b5061032c610a84565b005b34801561033a57600080fd5b5061035560048036038101906103509190612317565b610bd1565b005b34801561036357600080fd5b5061036c610bf1565b6040516103799190612dbe565b60405180910390f35b34801561038e57600080fd5b506103a960048036038101906103a49190612541565b610c04565b6040516103b69190612a44565b60405180910390f35b3480156103cb57600080fd5b506103d4610cb6565b6040516103e19190612da3565b60405180910390f35b3480156103f657600080fd5b50610411600480360381019061040c91906122aa565b610cbc565b60405161041e9190612da3565b60405180910390f35b34801561043357600080fd5b5061043c610d74565b005b34801561044a57600080fd5b50610453610dfc565b6040516104609190612a5f565b60405180910390f35b34801561047557600080fd5b5061047e610e22565b60405161048b9190612a44565b60405180910390f35b3480156104a057600080fd5b506104a9610e4c565b6040516104b69190612ae1565b60405180910390f35b6104d960048036038101906104d49190612541565b610ede565b005b3480156104e757600080fd5b5061050260048036038101906104fd91906123ed565b6110c5565b005b34801561051057600080fd5b5061052b600480360381019061052691906124f4565b6110db565b005b34801561053957600080fd5b50610554600480360381019061054f919061236a565b61116d565b005b34801561056257600080fd5b5061057d60048036038101906105789190612541565b6111cf565b60405161058a9190612ae1565b60405180910390f35b34801561059f57600080fd5b506105a861124b565b6040516105b59190612da3565b60405180910390f35b3480156105ca57600080fd5b506105e560048036038101906105e091906122d7565b611251565b6040516105f29190612ac6565b60405180910390f35b34801561060757600080fd5b50610622600480360381019061061d91906122aa565b6112e5565b60405161062f9190612da3565b60405180910390f35b34801561064457600080fd5b5061065f600480360381019061065a91906122aa565b6112fd565b005b600a60019054906101000a900460ff1681565b60007f80ac58cd000000000000000000000000000000000000000000000000000000007bffffffffffffffffffffffffffffffffffffffffffffffffffffffff1916827bffffffffffffffffffffffffffffffffffffffffffffffffffffffff1916148061073f57507f5b5e139f000000000000000000000000000000000000000000000000000000007bffffffffffffffffffffffffffffffffffffffffffffffffffffffff1916827bffffffffffffffffffffffffffffffffffffffffffffffffffffffff1916145b8061074f575061074e826113f5565b5b9050919050565b6060600080546107659061307c565b80601f01602080910402602001604051908101604052809291908181526020018280546107919061307c565b80156107de5780601f106107b3576101008083540402835291602001916107de565b820191906000526020600020905b8154815290600101906020018083116107c157829003601f168201915b5050505050905090565b60006107f38261145f565b610832576040517f08c379a000000000000000000000000000000000000000000000000000000000815260040161082990612cc3565b60405180910390fd5b6004600083815260200190815260200160002060009054906101000a900473ffffffffffffffffffffffffffffffffffffffff169050919050565b600061087882610c04565b90508073ffffffffffffffffffffffffffffffffffffffff168373ffffffffffffffffffffffffffffffffffffffff1614156108e9576040517f08c379a00000000000000000000000000000000000000000000000000000000081526004016108e090612d43565b60405180910390fd5b8073ffffffffffffffffffffffffffffffffffffffff166109086114cb565b73ffffffffffffffffffffffffffffffffffffffff1614806109375750610936816109316114cb565b611251565b5b610976576040517f08c379a000000000000000000000000000000000000000000000000000000000815260040161096d90612c43565b60405180910390fd5b61098083836114d3565b505050565b60085481565b6109936114cb565b73ffffffffffffffffffffffffffffffffffffffff166109b1610e22565b73ffffffffffffffffffffffffffffffffffffffff1614610a07576040517f08c379a00000000000000000000000000000000000000000000000000000000081526004016109fe90612d03565b60405180910390fd5b80600a60016101000a81548160ff02191690831515021790555050565b610a35610a2f6114cb565b8261158c565b610a74576040517f08c379a0000000000000000000000000000000000000000000000000000000008152600401610a6b90612d63565b60405180910390fd5b610a7f83838361166a565b505050565b610a8c6114cb565b73ffffffffffffffffffffffffffffffffffffffff16610aaa610e22565b73ffffffffffffffffffffffffffffffffffffffff1614610b00576040517f08c379a0000000000000000000000000000000000000000000000000000000008152600401610af790612d03565b60405180910390fd5b6000600c60009054906101000a900473ffffffffffffffffffffffffffffffffffffffff1673ffffffffffffffffffffffffffffffffffffffff1647604051610b4890612a2f565b60006040518083038185875af1925050503d8060008114610b85576040519150601f19603f3d011682016040523d82523d6000602084013e610b8a565b606091505b5050905080610bce576040517f08c379a0000000000000000000000000000000000000000000000000000000008152600401610bc590612d83565b60405180910390fd5b50565b610bec8383836040518060200160405280600081525061116d565b505050565b600a60009054906101000a900460ff1681565b6000806002600084815260200190815260200160002060009054906101000a900473ffffffffffffffffffffffffffffffffffffffff169050600073ffffffffffffffffffffffffffffffffffffffff168173ffffffffffffffffffffffffffffffffffffffff161415610cad576040517f08c379a0000000000000000000000000000000000000000000000000000000008152600401610ca490612c83565b60405180910390fd5b80915050919050565b60075481565b60008073ffffffffffffffffffffffffffffffffffffffff168273ffffffffffffffffffffffffffffffffffffffff161415610d2d576040517f08c379a0000000000000000000000000000000000000000000000000000000008152600401610d2490612c63565b60405180910390fd5b600360008373ffffffffffffffffffffffffffffffffffffffff1673ffffffffffffffffffffffffffffffffffffffff168152602001908152602001600020549050919050565b610d7c6114cb565b73ffffffffffffffffffffffffffffffffffffffff16610d9a610e22565b73ffffffffffffffffffffffffffffffffffffffff1614610df0576040517f08c379a0000000000000000000000000000000000000000000000000000000008152600401610de790612d03565b60405180910390fd5b610dfa60006118d1565b565b600c60009054906101000a900473ffffffffffffffffffffffffffffffffffffffff1681565b6000600660009054906101000a900473ffffffffffffffffffffffffffffffffffffffff16905090565b606060018054610e5b9061307c565b80601f0160208091040260200160405190810160405280929190818152602001828054610e879061307c565b8015610ed45780601f10610ea957610100808354040283529160200191610ed4565b820191906000526020600020905b815481529060010190602001808311610eb757829003601f168201915b5050505050905090565b600a60019054906101000a900460ff16610f2d576040517f08c379a0000000000000000000000000000000000000000000000000000000008152600401610f2490612d23565b60405180910390fd5b60075481610f3b9190612f19565b3414610f7c576040517f08c379a0000000000000000000000000000000000000000000000000000000008152600401610f7390612bc3565b60405180910390fd5b60095481600854610f8d9190612e92565b1115610fce576040517f08c379a0000000000000000000000000000000000000000000000000000000008152600401610fc590612b03565b60405180910390fd5b600a60009054906101000a900460ff1660ff1681600d60003373ffffffffffffffffffffffffffffffffffffffff1673ffffffffffffffffffffffffffffffffffffffff1681526020019081526020016000205461102c9190612e92565b111561106d576040517f08c379a000000000000000000000000000000000000000000000000000000000815260040161106490612b63565b60405180910390fd5b60005b818110156110c157600060016008546110899190612e92565b90506008600081548092919061109e906130df565b91905055506110ad3382611997565b5080806110b9906130df565b915050611070565b5050565b6110d76110d06114cb565b83836119b5565b5050565b6110e36114cb565b73ffffffffffffffffffffffffffffffffffffffff16611101610e22565b73ffffffffffffffffffffffffffffffffffffffff1614611157576040517f08c379a000000000000000000000000000000000000000000000000000000000815260040161114e90612d03565b60405180910390fd5b8181600b91906111689291906120d8565b505050565b61117e6111786114cb565b8361158c565b6111bd576040517f08c379a00000000000000000000000000000000000000000000000000000000081526004016111b490612d63565b60405180910390fd5b6111c984848484611b22565b50505050565b60606111da8261145f565b611219576040517f08c379a000000000000000000000000000000000000000000000000000000000815260040161121090612ce3565b60405180910390fd5b600b61122483611b7e565b604051602001611235929190612a00565b6040516020818303038152906040529050919050565b60095481565b6000600560008473ffffffffffffffffffffffffffffffffffffffff1673ffffffffffffffffffffffffffffffffffffffff16815260200190815260200160002060008373ffffffffffffffffffffffffffffffffffffffff1673ffffffffffffffffffffffffffffffffffffffff16815260200190815260200160002060009054906101000a900460ff16905092915050565b600d6020528060005260406000206000915090505481565b6113056114cb565b73ffffffffffffffffffffffffffffffffffffffff16611323610e22565b73ffffffffffffffffffffffffffffffffffffffff1614611379576040517f08c379a000000000000000000000000000000000000000000000000000000000815260040161137090612d03565b60405180910390fd5b600073ffffffffffffffffffffffffffffffffffffffff168173ffffffffffffffffffffffffffffffffffffffff1614156113e9576040517f08c379a00000000000000000000000000000000000000000000000000000000081526004016113e090612b43565b60405180910390fd5b6113f2816118d1565b50565b60007f01ffc9a7000000000000000000000000000000000000000000000000000000007bffffffffffffffffffffffffffffffffffffffffffffffffffffffff1916827bffffffffffffffffffffffffffffffffffffffffffffffffffffffff1916149050919050565b60008073ffffffffffffffffffffffffffffffffffffffff166002600084815260200190815260200160002060009054906101000a900473ffffffffffffffffffffffffffffffffffffffff1673ffffffffffffffffffffffffffffffffffffffff1614159050919050565b600033905090565b816004600083815260200190815260200160002060006101000a81548173ffffffffffffffffffffffffffffffffffffffff021916908373ffffffffffffffffffffffffffffffffffffffff160217905550808273ffffffffffffffffffffffffffffffffffffffff1661154683610c04565b73ffffffffffffffffffffffffffffffffffffffff167f8c5be1e5ebec7d5bd14f71427d1e84f3dd0314c0f7b2291e5b200ac8c7c3b92560405160405180910390a45050565b60006115978261145f565b6115d6576040517f08c379a00000000000000000000000000000000000000000000000000000000081526004016115cd90612c23565b60405180910390fd5b60006115e183610c04565b90508073ffffffffffffffffffffffffffffffffffffffff168473ffffffffffffffffffffffffffffffffffffffff16148061162357506116228185611251565b5b8061166157508373ffffffffffffffffffffffffffffffffffffffff16611649846107e8565b73ffffffffffffffffffffffffffffffffffffffff16145b91505092915050565b8273ffffffffffffffffffffffffffffffffffffffff1661168a82610c04565b73ffffffffffffffffffffffffffffffffffffffff16146116e0576040517f08c379a00000000000000000000000000000000000000000000000000000000081526004016116d790612b83565b60405180910390fd5b600073ffffffffffffffffffffffffffffffffffffffff168273ffffffffffffffffffffffffffffffffffffffff161415611750576040517f08c379a000000000000000000000000000000000000000000000000000000000815260040161174790612be3565b60405180910390fd5b61175b838383611cdf565b6117666000826114d3565b6001600360008573ffffffffffffffffffffffffffffffffffffffff1673ffffffffffffffffffffffffffffffffffffffff16815260200190815260200160002060008282546117b69190612f73565b925050819055506001600360008473ffffffffffffffffffffffffffffffffffffffff1673ffffffffffffffffffffffffffffffffffffffff168152602001908152602001600020600082825461180d9190612e92565b92505081905550816002600083815260200190815260200160002060006101000a81548173ffffffffffffffffffffffffffffffffffffffff021916908373ffffffffffffffffffffffffffffffffffffffff160217905550808273ffffffffffffffffffffffffffffffffffffffff168473ffffffffffffffffffffffffffffffffffffffff167fddf252ad1be2c89b69c2b068fc378daa952ba7f163c4a11628f55a4df523b3ef60405160405180910390a46118cc838383611ce4565b505050565b6000600660009054906101000a900473ffffffffffffffffffffffffffffffffffffffff16905081600660006101000a81548173ffffffffffffffffffffffffffffffffffffffff021916908373ffffffffffffffffffffffffffffffffffffffff1602179055508173ffffffffffffffffffffffffffffffffffffffff168173ffffffffffffffffffffffffffffffffffffffff167f8be0079c531659141344cd1fd0a4f28419497f9722a3daafe3b4186f6b6457e060405160405180910390a35050565b6119b1828260405180602001604052806000815250611ce9565b5050565b8173ffffffffffffffffffffffffffffffffffffffff168373ffffffffffffffffffffffffffffffffffffffff161415611a24576040517f08c379a0000000000000000000000000000000000000000000000000000000008152600401611a1b90612c03565b60405180910390fd5b80600560008573ffffffffffffffffffffffffffffffffffffffff1673ffffffffffffffffffffffffffffffffffffffff16815260200190815260200160002060008473ffffffffffffffffffffffffffffffffffffffff1673ffffffffffffffffffffffffffffffffffffffff16815260200190815260200160002060006101000a81548160ff0219169083151502179055508173ffffffffffffffffffffffffffffffffffffffff168373ffffffffffffffffffffffffffffffffffffffff167f17307eab39ab6107e8899845ad3d59bd9653f200f220920489ca2b5937696c3183604051611b159190612ac6565b60405180910390a3505050565b611b2d84848461166a565b611b3984848484611d44565b611b78576040517f08c379a0000000000000000000000000000000000000000000000000000000008152600401611b6f90612b23565b60405180910390fd5b50505050565b60606000821415611bc6576040518060400160405280600181526020017f30000000000000000000000000000000000000000000000000000000000000008152509050611cda565b600082905060005b60008214611bf8578080611be1906130df565b915050600a82611bf19190612ee8565b9150611bce565b60008167ffffffffffffffff811115611c1457611c13613215565b5b6040519080825280601f01601f191660200182016040528015611c465781602001600182028036833780820191505090505b5090505b60008514611cd357600182611c5f9190612f73565b9150600a85611c6e9190613128565b6030611c7a9190612e92565b60f81b818381518110611c9057611c8f6131e6565b5b60200101907effffffffffffffffffffffffffffffffffffffffffffffffffffffffffffff1916908160001a905350600a85611ccc9190612ee8565b9450611c4a565b8093505050505b919050565b505050565b505050565b611cf38383611edb565b611d006000848484611d44565b611d3f576040517f08c379a0000000000000000000000000000000000000000000000000000000008152600401611d3690612b23565b60405180910390fd5b505050565b6000611d658473ffffffffffffffffffffffffffffffffffffffff166120b5565b15611ece578373ffffffffffffffffffffffffffffffffffffffff1663150b7a02611d8e6114cb565b8786866040518563ffffffff1660e01b8152600401611db09493929190612a7a565b602060405180830381600087803b158015611dca57600080fd5b505af1925050508015611dfb57506040513d601f19601f82011682018060405250810190611df891906124c7565b60015b611e7e573d8060008114611e2b576040519150601f19603f3d011682016040523d82523d6000602084013e611e30565b606091505b50600081511415611e76576040517f08c379a0000000000000000000000000000000000000000000000000000000008152600401611e6d90612b23565b60405180910390fd5b805181602001fd5b63150b7a0260e01b7bffffffffffffffffffffffffffffffffffffffffffffffffffffffff1916817bffffffffffffffffffffffffffffffffffffffffffffffffffffffff191614915050611ed3565b600190505b949350505050565b600073ffffffffffffffffffffffffffffffffffffffff168273ffffffffffffffffffffffffffffffffffffffff161415611f4b576040517f08c379a0000000000000000000000000000000000000000000000000000000008152600401611f4290612ca3565b60405180910390fd5b611f548161145f565b15611f94576040517f08c379a0000000000000000000000000000000000000000000000000000000008152600401611f8b90612ba3565b60405180910390fd5b611fa060008383611cdf565b6001600360008473ffffffffffffffffffffffffffffffffffffffff1673ffffffffffffffffffffffffffffffffffffffff1681526020019081526020016000206000828254611ff09190612e92565b92505081905550816002600083815260200190815260200160002060006101000a81548173ffffffffffffffffffffffffffffffffffffffff021916908373ffffffffffffffffffffffffffffffffffffffff160217905550808273ffffffffffffffffffffffffffffffffffffffff16600073ffffffffffffffffffffffffffffffffffffffff167fddf252ad1be2c89b69c2b068fc378daa952ba7f163c4a11628f55a4df523b3ef60405160405180910390a46120b160008383611ce4565b5050565b6000808273ffffffffffffffffffffffffffffffffffffffff163b119050919050565b8280546120e49061307c565b90600052602060002090601f016020900481019282612106576000855561214d565b82601f1061211f57803560ff191683800117855561214d565b8280016001018555821561214d579182015b8281111561214c578235825591602001919060010190612131565b5b50905061215a919061215e565b5090565b5b8082111561217757600081600090555060010161215f565b5090565b600061218e61218984612dfe565b612dd9565b9050828152602081018484840111156121aa576121a9613253565b5b6121b584828561303a565b509392505050565b6000813590506121cc8161379e565b92915050565b6000813590506121e1816137b5565b92915050565b6000813590506121f6816137cc565b92915050565b60008151905061220b816137cc565b92915050565b600082601f83011261222657612225613249565b5b813561223684826020860161217b565b91505092915050565b60008083601f84011261225557612254613249565b5b8235905067ffffffffffffffff81111561227257612271613244565b5b60208301915083600182028301111561228e5761228d61324e565b5b9250929050565b6000813590506122a4816137e3565b92915050565b6000602082840312156122c0576122bf61325d565b5b60006122ce848285016121bd565b91505092915050565b600080604083850312156122ee576122ed61325d565b5b60006122fc858286016121bd565b925050602061230d858286016121bd565b9150509250929050565b6000806000606084860312156123305761232f61325d565b5b600061233e868287016121bd565b935050602061234f868287016121bd565b925050604061236086828701612295565b9150509250925092565b600080600080608085870312156123845761238361325d565b5b6000612392878288016121bd565b94505060206123a3878288016121bd565b93505060406123b487828801612295565b925050606085013567ffffffffffffffff8111156123d5576123d4613258565b5b6123e187828801612211565b91505092959194509250565b600080604083850312156124045761240361325d565b5b6000612412858286016121bd565b9250506020612423858286016121d2565b9150509250929050565b600080604083850312156124445761244361325d565b5b6000612452858286016121bd565b925050602061246385828601612295565b9150509250929050565b6000602082840312156124835761248261325d565b5b6000612491848285016121d2565b91505092915050565b6000602082840312156124b0576124af61325d565b5b60006124be848285016121e7565b91505092915050565b6000602082840312156124dd576124dc61325d565b5b60006124eb848285016121fc565b91505092915050565b6000806020838503121561250b5761250a61325d565b5b600083013567ffffffffffffffff81111561252957612528613258565b5b6125358582860161223f565b92509250509250929050565b6000602082840312156125575761255661325d565b5b600061256584828501612295565b91505092915050565b61257781612fb9565b82525050565b61258681612fa7565b82525050565b61259581612fcb565b82525050565b60006125a682612e44565b6125b08185612e5a565b93506125c0818560208601613049565b6125c981613262565b840191505092915050565b60006125df82612e4f565b6125e98185612e76565b93506125f9818560208601613049565b61260281613262565b840191505092915050565b600061261882612e4f565b6126228185612e87565b9350612632818560208601613049565b80840191505092915050565b6000815461264b8161307c565b6126558186612e87565b945060018216600081146126705760018114612681576126b4565b60ff198316865281860193506126b4565b61268a85612e2f565b60005b838110156126ac5781548189015260018201915060208101905061268d565b838801955050505b50505092915050565b60006126ca600d83612e76565b91506126d582613273565b602082019050919050565b60006126ed603283612e76565b91506126f88261329c565b604082019050919050565b6000612710602683612e76565b915061271b826132eb565b604082019050919050565b6000612733601783612e76565b915061273e8261333a565b602082019050919050565b6000612756602583612e76565b915061276182613363565b604082019050919050565b6000612779601c83612e76565b9150612784826133b2565b602082019050919050565b600061279c601083612e76565b91506127a7826133db565b602082019050919050565b60006127bf602483612e76565b91506127ca82613404565b604082019050919050565b60006127e2601983612e76565b91506127ed82613453565b602082019050919050565b6000612805602c83612e76565b91506128108261347c565b604082019050919050565b6000612828603883612e76565b9150612833826134cb565b604082019050919050565b600061284b602a83612e76565b91506128568261351a565b604082019050919050565b600061286e602983612e76565b915061287982613569565b604082019050919050565b6000612891602083612e76565b915061289c826135b8565b602082019050919050565b60006128b4602c83612e76565b91506128bf826135e1565b604082019050919050565b60006128d7600583612e87565b91506128e282613630565b600582019050919050565b60006128fa601483612e76565b915061290582613659565b602082019050919050565b600061291d602083612e76565b915061292882613682565b602082019050919050565b6000612940601383612e76565b915061294b826136ab565b602082019050919050565b6000612963602183612e76565b915061296e826136d4565b604082019050919050565b6000612986600083612e6b565b915061299182613723565b600082019050919050565b60006129a9603183612e76565b91506129b482613726565b604082019050919050565b60006129cc600f83612e76565b91506129d782613775565b602082019050919050565b6129eb81613023565b82525050565b6129fa8161302d565b82525050565b6000612a0c828561263e565b9150612a18828461260d565b9150612a23826128ca565b91508190509392505050565b6000612a3a82612979565b9150819050919050565b6000602082019050612a59600083018461257d565b92915050565b6000602082019050612a74600083018461256e565b92915050565b6000608082019050612a8f600083018761257d565b612a9c602083018661257d565b612aa960408301856129e2565b8181036060830152612abb818461259b565b905095945050505050565b6000602082019050612adb600083018461258c565b92915050565b60006020820190508181036000830152612afb81846125d4565b905092915050565b60006020820190508181036000830152612b1c816126bd565b9050919050565b60006020820190508181036000830152612b3c816126e0565b9050919050565b60006020820190508181036000830152612b5c81612703565b9050919050565b60006020820190508181036000830152612b7c81612726565b9050919050565b60006020820190508181036000830152612b9c81612749565b9050919050565b60006020820190508181036000830152612bbc8161276c565b9050919050565b60006020820190508181036000830152612bdc8161278f565b9050919050565b60006020820190508181036000830152612bfc816127b2565b9050919050565b60006020820190508181036000830152612c1c816127d5565b9050919050565b60006020820190508181036000830152612c3c816127f8565b9050919050565b60006020820190508181036000830152612c5c8161281b565b9050919050565b60006020820190508181036000830152612c7c8161283e565b9050919050565b60006020820190508181036000830152612c9c81612861565b9050919050565b60006020820190508181036000830152612cbc81612884565b9050919050565b60006020820190508181036000830152612cdc816128a7565b9050919050565b60006020820190508181036000830152612cfc816128ed565b9050919050565b60006020820190508181036000830152612d1c81612910565b9050919050565b60006020820190508181036000830152612d3c81612933565b9050919050565b60006020820190508181036000830152612d5c81612956565b9050919050565b60006020820190508181036000830152612d7c8161299c565b9050919050565b60006020820190508181036000830152612d9c816129bf565b9050919050565b6000602082019050612db860008301846129e2565b92915050565b6000602082019050612dd360008301846129f1565b92915050565b6000612de3612df4565b9050612def82826130ae565b919050565b6000604051905090565b600067ffffffffffffffff821115612e1957612e18613215565b5b612e2282613262565b9050602081019050919050565b60008190508160005260206000209050919050565b600081519050919050565b600081519050919050565b600082825260208201905092915050565b600081905092915050565b600082825260208201905092915050565b600081905092915050565b6000612e9d82613023565b9150612ea883613023565b9250827fffffffffffffffffffffffffffffffffffffffffffffffffffffffffffffffff03821115612edd57612edc613159565b5b828201905092915050565b6000612ef382613023565b9150612efe83613023565b925082612f0e57612f0d613188565b5b828204905092915050565b6000612f2482613023565b9150612f2f83613023565b9250817fffffffffffffffffffffffffffffffffffffffffffffffffffffffffffffffff0483118215151615612f6857612f67613159565b5b828202905092915050565b6000612f7e82613023565b9150612f8983613023565b925082821015612f9c57612f9b613159565b5b828203905092915050565b6000612fb282613003565b9050919050565b6000612fc482613003565b9050919050565b60008115159050919050565b60007fffffffff0000000000000000000000000000000000000000000000000000000082169050919050565b600073ffffffffffffffffffffffffffffffffffffffff82169050919050565b6000819050919050565b600060ff82169050919050565b82818337600083830152505050565b60005b8381101561306757808201518184015260208101905061304c565b83811115613076576000848401525b50505050565b6000600282049050600182168061309457607f821691505b602082108114156130a8576130a76131b7565b5b50919050565b6130b782613262565b810181811067ffffffffffffffff821117156130d6576130d5613215565b5b80604052505050565b60006130ea82613023565b91507fffffffffffffffffffffffffffffffffffffffffffffffffffffffffffffffff82141561311d5761311c613159565b5b600182019050919050565b600061313382613023565b915061313e83613023565b92508261314e5761314d613188565b5b828206905092915050565b7f4e487b7100000000000000000000000000000000000000000000000000000000600052601160045260246000fd5b7f4e487b7100000000000000000000000000000000000000000000000000000000600052601260045260246000fd5b7f4e487b7100000000000000000000000000000000000000000000000000000000600052602260045260246000fd5b7f4e487b7100000000000000000000000000000000000000000000000000000000600052603260045260246000fd5b7f4e487b7100000000000000000000000000000000000000000000000000000000600052604160045260246000fd5b600080fd5b600080fd5b600080fd5b600080fd5b600080fd5b600080fd5b6000601f19601f8301169050919050565b7f4e46547320536f6c64206f757400000000000000000000000000000000000000600082015250565b7f4552433732313a207472616e7366657220746f206e6f6e20455243373231526560008201527f63656976657220696d706c656d656e7465720000000000000000000000000000602082015250565b7f4f776e61626c653a206e6577206f776e657220697320746865207a65726f206160008201527f6464726573730000000000000000000000000000000000000000000000000000602082015250565b7f43616e6e6f74204d696e74204d6f7265205468616e2033000000000000000000600082015250565b7f4552433732313a207472616e736665722066726f6d20696e636f72726563742060008201527f6f776e6572000000000000000000000000000000000000000000000000000000602082015250565b7f4552433732313a20746f6b656e20616c7265616479206d696e74656400000000600082015250565b7f4e6f7420656e6f75676820507269636500000000000000000000000000000000600082015250565b7f4552433732313a207472616e7366657220746f20746865207a65726f2061646460008201527f7265737300000000000000000000000000000000000000000000000000000000602082015250565b7f4552433732313a20617070726f766520746f2063616c6c657200000000000000600082015250565b7f4552433732313a206f70657261746f7220717565727920666f72206e6f6e657860008201527f697374656e7420746f6b656e0000000000000000000000000000000000000000602082015250565b7f4552433732313a20617070726f76652063616c6c6572206973206e6f74206f7760008201527f6e6572206e6f7220617070726f76656420666f7220616c6c0000000000000000602082015250565b7f4552433732313a2062616c616e636520717565727920666f7220746865207a6560008201527f726f206164647265737300000000000000000000000000000000000000000000602082015250565b7f4552433732313a206f776e657220717565727920666f72206e6f6e657869737460008201527f656e7420746f6b656e0000000000000000000000000000000000000000000000602082015250565b7f4552433732313a206d696e7420746f20746865207a65726f2061646472657373600082015250565b7f4552433732313a20617070726f76656420717565727920666f72206e6f6e657860008201527f697374656e7420746f6b656e0000000000000000000000000000000000000000602082015250565b7f2e6a736f6e000000000000000000000000000000000000000000000000000000600082015250565b7f546f6b656e20446f65736e277420457869737473000000000000000000000000600082015250565b7f4f776e61626c653a2063616c6c6572206973206e6f7420746865206f776e6572600082015250565b7f4d696e74696e67206e6f7420656e61626c656400000000000000000000000000600082015250565b7f4552433732313a20617070726f76616c20746f2063757272656e74206f776e6560008201527f7200000000000000000000000000000000000000000000000000000000000000602082015250565b50565b7f4552433732313a207472616e736665722063616c6c6572206973206e6f74206f60008201527f776e6572206e6f7220617070726f766564000000000000000000000000000000602082015250565b7f7769746864726177206661696c65640000000000000000000000000000000000600082015250565b6137a781612fa7565b81146137b257600080fd5b50565b6137be81612fcb565b81146137c957600080fd5b50565b6137d581612fd7565b81146137e057600080fd5b50565b6137ec81613023565b81146137f757600080fd5b5056fea26469706673582212208b199efbe513cbda2a2b839712af006e360464daad4e4ef1fb8f3e2ec747379b64736f6c63430008070033",
  "linkReferences": {},
  "deployedLinkReferences": {}
}